:0400000081EF00F09C
:1000080040004000400040004000400040004000E8
:1000180040004000400040004000400040004000D8
:1000280040004000400040004000400040004000C8
:1000380040004000400040004000400040004000B8
:100048009B44400040004000400040004000400009
:100058004000400040004000400040004000400098
:100068004000400040004000400040004000400088
:100078004000400040004000400040004000400078
:100088004000400040004000400040004000400068
:100098004000400040004000400040004000400058
:1000A8004000400040004000400040004000400048
:1000B8004000400040004000400040004000400038
:1000C8004000400040004000400040004000400028
:1000D8004000400040004000400040004000400018
:1000E8004000400040004000400040004000400008
:0E00F8004000400040004000FF00CFEF89F0C4
:10E97400000A10205F0000000000000000000000FA
:10E9840000000000000000000000000000FFFF0085
:10E99400000000000000007F7F0000000000070767
:10E9A4000000000707000000000000000000000055
:10E9B40000001818FFFF1818FFFF18001818FFFFB1
:10E9C4001818FFFF18002424FFFFA4A464640000A7
:10E9D4002424FFFF242424240000636330180CC67D
:10E9E400C6000000636330180CC6C60000003C7EFD
:10E9F400C3DB7E3C66C300003C7EC3DB7E3C66C357
:10EA040000000007070000000000000000000000F4
:10EA1400000000000000003C7EC3810000000000F4
:10EA2400003C7EC381000000000000000081C37E22
:10EA34003C00000000000081C37E3C000000181868
:10EA44007EFF18180000000018187EFF1818000038
:10EA54000000001818FFFF1818000000001818FF25
:10EA6400FF18180000000000000000000000000073
:10EA7400000000C0E060200000000000FFFFFFFF76
:10EA84000000000000000000000000000000000082
:10EA940000000000000000000000E0E0E0000000D2
:10EAA4000000000080C06030180C00000C183060BA
:10EAB400C08000000000F8FC06030306FCF8000018
:10EAC4001F3F60C0C0603F1F0000000C0CFFFF0C24
:10EAD4000C000000000000FFFF00000000000E0F0B
:10EAE40083C3E3733F1F00003F3F3333333333307B
:10EAF40000000C0C868686FF7F3C0000303061618C
:10EB0400617F3F1E0000E0F0988CFFFF80800000D2
:10EB140007070606FFFF06060000FFFF83838383C3
:10EB2400830300003171616161617F3F0000F0F88F
:10EB34001C8E86860C0000001F3F616161613F1FCF
:10EB4400000003030303C3F33F0F00000000707CC5
:10EB54001F07010000007CFE83838383FE7C00008A
:10EB64003E7F616161617F3E00007CFE838383831D
:10EB7400FF7E00000061616161337F3F000000009F
:10EB840066660000000000000000666600000000E9
:10EB940000000000C6C60000000000000000E3738F
:10EBA40030000000000000C0E070381C0E060000B9
:10EBB400060E1C3870E0C0000000303030303030B9
:10EBC400303000000C0C0C0C0C0C0C0C0000060E6D
:10EBD4001C3870E0C000000000C0E070381C0E0655
:10EBE4000000060683C3E3773E1C000000003333B5
:10EBF400330000000000F8FC06C3C3C3FE7C000021
:10EC04001F3F6063636363000000E0F81C0E0E1C8A
:10EC1400F8E000003F3F000000003F3F0000FEFE20
:10EC240086868686FE7C00003F3F212121213F1EEF
:10EC34000000F0F80C0606060C0C00000F1F302034
:10EC4400202030300000FEFE0606060CF8F000001E
:10EC54003F3F202020301F0F0000FEFE8686868660
:10EC6400860000003F3F2121212121000000FEFEFB
:10EC740086868686860000003F3F0101010101006F
:10EC84000000F0F80C0686868C8C00000F1F3020E4
:10EC940021213F3F0000FEFE80808080FEFE0000B8
:10ECA4003F3F010101013F3F0000000606FEFE0652
:10ECB400060000000020203F3F202000000000004C
:10ECC400000000FEFE00000030302020203F1F0026
:10ECD4000000FFFFC0E070381C0E00003F3F030738
:10ECE4000E1C38300000FFFF000000000000000090
:10ECF4003F3F2020202020000000FFFF0E38380E68
:10ED0400FFFF00003F3F000000003F3F0000FFFF07
:10ED14000E38E080FFFF00003F3F0000030F3F3F3D
:10ED24000000F8FC06030306FCF800001F3F60C067
:10ED3400C0603F1F0000FFFF83838383FE7C0000CD
:10ED44003F3F0101010101000000F8FC0603030636
:10ED5400FCF800001F3F60C0C2663F5F4000FFFF39
:10ED640083838383FE7C00003F3F0103070E3C380E
:10ED740000007CFE82828282C644000022634141FC
:10ED840041417F3E0000020202FFFF020202000036
:10ED94000000003F3F0000000000FFFF00000000F3
:10EDA400FFFF00001F3F202020203F1F00007FFFA7
:10EDB40080000080FF7F000000031F7C7C1F030095
:10EDC4000000FFFF00E0E000FFFF00000F3F3807F6
:10EDD40007383F0F00000E3CF0C0C0F03C0E0000AE
:10EDE400703C0F03030F3C700000071F78E0E078CD
:10EDF4001F0700000000003F3F0000000000020663
:10EE04000E9EF262020200002030383D27232020AB
:10EE14000000FFFF0303030300000000FFFFC0C066
:10EE2400C0C0000000030F1C70C000000000000000
:10EE340000000080E0380E03000000000303030319
:10EE4400FFFF00000000C0C0C0C0FFFF00000C0EA8
:10EE5400070303070E0C0000000000000000000080
:10EE6400000000000000000000000000C0C0C0C09E
:10EE7400C0C0C0C0000003070E0C0000000000006A
:10EE84000000000000000000000000E0F09090F09E
:10EE9400F00000001C3E2222223F3F200000FFFF22
:10EEA400808080C0C00000003F3F2121213F1E0020
:10EEB400000000C0E0202020604000000E1F312030
:10EEC40020203010000000C0C0808080FFFF0000C0
:10EED4001E3F2121213F3F000000C0E0A0A0A0E090
:10EEE400C00000000F1F3222221E0C00000040F858
:10EEF400FC46420000000000003F3F00000000000C
:10EF04000000E0F0909090F0E000000047CF989867
:10EF140098FF7F000000FFFF808080C0C0000000D9
:10EF24003F3F0101013F3E00000000405C5C4000A7
:10EF34000000000000203F3F2000000000000040CF
:10EF44005C5C400000000000C0C080FF7F00000047
:10EF54000000FFFF0080C060200000003F3F060F5C
:10EF64001D38200000000002FFFF00000000000028
:10EF740000203F3F200000000000E0E020E0E0200F
:10EF8400E0C000003F3F003F3F003F3F0000E0E0A3
:10EF9400808080C0C00000003F3F0101013F3E006F
:10EFA4000000C0E0202020E0C00000000F1F30203F
:10EFB400301F0F000000E0F0909090F0E00000009F
:10EFC400FFFF2121213F1E000000E0F0909090F00F
:10EFD400E00000001E3F212121FFFF000000E0E0CF
:10EFE400808080C0C00000003F3F0101000000009D
:10EFF4000000C0E0A0A0A0200000000008193121FA
:10F0040021331E0000004040F8FC40400000000096
:10F0140000001F3F202000000000C0E0000000E0CE
:10F02400E00000001F3F2020203F3F200000E0F0D0
:10F03400000000F0E000000000073E383E0700003A
:10F044000000E0F000E00000F0E00000073F3807B7
:10F05400383F0700000060E0800080E060000000AE
:10F0640006070100010706000000E0F0000000F0C0
:10F07400E00000000087CF78CF8700000000202048
:10F08400A0E060200000000030382C26232100007E
:10F09400000406205F00000003A000C00C00F94F2C
:10F0A400806BEB00988C8052A58003000001C8801F
:10F0B40089C00050850021C2000840002082000061
:10F0C4002000188C00FA2F804BE0805A66808AA5B5
:10F0D40000E08F80EAAB0072A9009A8C00FAAF803E
:10F0E4004AA7000140000940002148805145008999
:10F0F400420042660072A6807A8780FAA5007225D3
:10F1040000FA2700FAA880FA8800722B00F88F8092
:10F114008BE8808BE800F88D80F82080F90F80F967
:10F12400CF80722700FA8400722740FA85804AA9AA
:10F134000083E800F02F00E06E00F0EF00D88D802F
:10F14400C0EC009AAC8003E880C081808BE0004270
:10F154000400082080020400312380F923003124B4
:10F1640080312F8031628023EA00255380F90380A7
:10F1740002E00006E000F8428003E000798780396D
:10F1840003803123007D23003127C0788400294087
:10F194000043E40070270060660070670048C48084
:10F1A40074578059E68023E8800360008BE2006195
:10F1B4000C001010205F00000000000000000000A0
:10F1C400000000000000000000000000000000003B
:10F1D40000000000000000000000F8FCFCFCF80047
:10F1E40000000000000000000000007373730000C2
:10F1F400000000000000000000001E3E3E00000071
:10F204003E3E1E0000000000000000000000000060
:10F2140000000000000000303030FEFE303030309E
:10F22400FEFE30303000000C0C0C7F7F0C0C0C0CFC
:10F234007F7F0C0C0C00000000F0F898FE9898FEFC
:10F244009898180000000000001819197F19197FF8
:10F25400191F0F0000000000000038383880C0E09B
:10F26400703800000000000000001C0E0703011CA1
:10F274001C1C0000000000000038FCC4C4FC380062
:10F284000000800000000000001E3F2121333F1ECB
:10F294001E372300000000000000203C3C1C00003E
:10F2A400000000000000000000000000000000005A
:10F2B40000000000000000000000C0E0F0381C0C5A
:10F2C4000404000000000000000003070F1C383095
:10F2D4002020000000000000000004040C1C38F092
:10F2E400E0C00000000000000000202030381C0FA7
:10F2F4000703000000000000808890E0E0FCFCE0D0
:10F30400E09088800000000001110907073F3F07D3
:10F3140007091101000000000000808080F0F080E7
:10F32400808000000000000000000101010F0F01B7
:10F3340001010000000000000000000000000000C7
:10F344000000000000000000000040787838000051
:10F354000000000000000000008080808080808029
:10F364008080800000000000000101010101010112
:10F374000101010000000000000000000000000086
:10F3840000000000000000000000003838380000D1
:10F3940000000000000000000000000000000080E9
:10F3A400C0E070381C000000002030381C0E070339
:10F3B400010000000000000000F8FCFC0484E47478
:10F3C400FCFCF80000000000001F3F3F2E27212016
:10F3D4003F3F1F000000000000606060F0FCFC0084
:10F3E4000000000000000000002020203F3F3F20DC
:10F3F400202000000000000000181C1C040484CC21
:10F40400FC783000000000000030383C2E27232117
:10F41400383838000000000000181C1C848484CC98
:10F424007C78300000000000001838382121213396
:10F434003E1E0C00000000000080C0603018FCFC80
:10F44400FC000000000000000003030323233F3FEF
:10F454003F2323000000000000FCFCFC848484841F
:10F4640084040400000000000019393921212133EB
:10F474003F1F0E000000000000E0F0F89C8C848424
:10F484008480000000000000001F3F3F2121212153
:10F494003F3F1F0000000000003C3C3C0404040407
:10F4A40084FCFC7C0000000000000000383C3E07A7
:10F4B400030100000000000000787CFCC4C48484C4
:10F4C400FC7C780000000000001E3E3F2121232325
:10F4D4003F3E1E000000000000F8FCFC848484848D
:10F4E400FCFCF8000000000000000121212131395A
:10F4F4001F0F070000000000000000007070700083
:10F504000000000000000000000000000E0E0E00CD
:10F514000000000000000000000000007070700097
:10F524000000000000000000000000101E1E0E007D
:10F5340000000000000000000080C0E070381C0ED5
:10F544000602000000000000000103070E1C3870D2
:10F554006040000000000000606060606060606007
:10F5640060606060000000000606060606060606E7
:10F5740006060606000000000002060E1C3870E0B5
:10F58400C08000000000000000406070381C0E07BE
:10F59400030100000000000000181C0C0E0686CEBB
:10F5A400FC7C38000000000000000000007373734E
:10F5B400000000000000000000FCFEFE0202C2C2C7
:10F5C400C2FEFEFC00000000003F3F7F60606363FA
:10F5D400636343030000000000E0F0F81C0C0C1C03
:10F5E400F8F0E00000000000003F3F3F020202028A
:10F5F4003F3F3F00000000000004FCFCFC848484C6
:10F60400FCFC78000000000000203F3F3F21212146
:10F614003F3F1E000000000000F0F8FC0C0404044E
:10F624001C1C180000000000000F1F3F3020202089
:10F6340038381800000000000004FCFCFC04040C32
:10F64400FCF8F0000000000000203F3F3F20203085
:10F654003F1F0F00000000000004FCFCFC848484B5
:10F66400C4CC1C000000000000203F3F3F212121AA
:10F6740023333800000000000004FCFCFC84848474
:10F68400C4CC1C000000000000203F3F3F210101CA
:10F69400030300000000000000F0F8FC0C04040464
:10F6A4003C3C380000000000000F1F3F30202222A5
:10F6B4003E3E3E000000000000FCFCFC808080FC1C
:10F6C400FCFC000000000000003F3F3F0101013F3F
:10F6D4003F3F00000000000000000404FCFCFC04A8
:10F6E4000400000000000000000020203F3F3F20F5
:10F6F400200000000000000000000000000404FCE2
:10F70400FCFC0404000000001E1E3E202020203FBC
:10F714003F1F0000000000000004FCFCFCC0E0707F
:10F724003C1C0C000000000000203F3F3F03070E7C
:10F734003C383000000000000004FCFCFC04000025
:10F74400000000000000000000203F3F3F20202078
:10F7540030383C000000000000FCFCFC78F0E0F0D5
:10F7640078FCFCFC00000000003F3F3F000001006B
:10F77400003F3F3F0000000000FCFCFC70E0C08044
:10F7840000FCFCFC00000000003F3F3F00000103C0
:10F79400073F3F3F0000000000E0F0F81C0C0C0C99
:10F7A4001CF8F0E00000000000070F1F3830303074
:10F7B400381F0F07000000000004FCFCFC84848454
:10F7C400FCFC78000000000000203F3F3F210101C5
:10F7D400010100000000000000E0F8F81C0C040C1B
:10F7E4001CF8F8E00000000000071F1F18185C5EFA
:10F7F4007E7F7F47000000000004FCFCFC848484BE
:10F80400FCFC78000000000000203F3F3F010103A2
:10F814003F3F3C00000000000078FCFC84848484AA
:10F82400BC3C380000000000001C3C3D212121218B
:10F834003F3F1E0000000000001C0C0404FCFCFC04
:10F8440004040C1C0000000000000020203F3F3F87
:10F85400202000000000000000FCFCFC000000FC74
:10F86400FCFC000000000000001F3F3F2020203F60
:10F874003F1F00000000000000FCFCFC000000FC36
:10F88400FCFC00000000000000070F1F3830381F88
:10F894000F0700000000000000FCFCFC00008000DA
:10F8A40000FCFCFC0000000000030F3F3C3C0F3C4C
:10F8B4003C3F0F0300000000001C3C7CE0C0E07CE7
:10F8C4003C1C00000000000000383C3E0703073EDB
:10F8D4003C38000000000000007CFCFC800080FC40
:10F8E400FC7C000000000000000020213F3F3F217D
:10F8F4002000000000000000003C1C0C0484C4E450
:10F904007C3C1C000000000000383C3E27232120E2
:10F9140030383C0000000000000000FCFCFC040443
:10F9240004040000000000000000003F3F3F2020CE
:10F934002020000000000000001C3870E0C080009F
:10F9440000000000000000000000000000010307A8
:10F954000E1C18302020000000000004040404FCE5
:10F96400FCFC000000000000000000202020203FDC
:10F974003F3F000000000000002030381C0E0E1C29
:10F9840038302000000000000000000000000000EB
:10F994000000000000000000000000000000000063
:10F9A40000000000000000C0C0C0C0C0C0C0C0C093
:10F9B400C0C0C0C0C0C00000000C0C3C303000000F
:10F9C4000000000000000000000000000000000033
:10F9D400000000000000000000004040404040C023
:10F9E400C080000000000000001C3E3E2222223F96
:10F9F4001F3F2000000000000004FCFCFC404040CD
:10FA0400C0C080000000000000203F1F3F202020D5
:10FA14003F3F1F00000000000080C0C0404040C0C5
:10FA2400C080000000000000001F3F3F202020395C
:10FA340039190000000000000080C0C0404044FCB0
:10FA4400FCFC040000000000001F3F3F2020203F7A
:10FA54001F3F2000000000000080C0C0404040C0A4
:10FA6400C080000000000000001F3F3F2222223B14
:10FA74003B1B000000000000008080F8FCFC849C1C
:10FA84009C180000000000000021213F3F3F21217D
:10FA940001000000000000000080C0C0404040C0E1
:10FAA40080C04000000000000047CFDF989898FF16
:10FAB400FF7F0000000000000004FCFCFC804040CC
:10FAC400C0C080000000000000203F3F3F01000054
:10FAD4003F3F3F00000000000000404040DCDCDC11
:10FAE400000000000000000000002020203F3F3FF5
:10FAF400202020000000000000000000404040DC06
:10FB0400DCDC000000000000002060E08080C0FF1A
:10FB1400FF7F0000000000000004FCFCFC000080EB
:10FB2400C0C040000000000000203F3F3F02070F1C
:10FB34003D383000000000000000040404FCFCFC1C
:10FB4400000000000000000000002020203F3F3F94
:10FB5400202020000000000000C0C0C04040C04081
:10FB640040C0C08000000000003F3F3F00003F0055
:10FB7400003F3F3F0000000000C0C0C0404040C004
:10FB8400C080000000000000003F3F3F0000003F35
:10FB94003F3F0000000000000080C0C0404040C063
:10FBA400C080000000000000001F3F3F2020203FD5
:10FBB4003F1F0000000000000040C080C0404040E3
:10FBC400C0C08000000000000080FFFFFF90101004
:10FBD4001F1F0F000000000080C0C0404040C080D4
:10FBE400C0400000000000000F1F1F101090FFFF16
:10FBF400FF800000000000000040C0C0C080C0C002
:10FC0400C0C080000000000000203F3F3F210000F2
:10FC140001010100000000000080C0C040404040DD
:10FC2400C08000000000000000193B232626263C6B
:10FC34003D19000000000000004040E0F0F84040A2
:10FC440040400000000000000000001F3F3F20383B
:10FC5400381800000000000000C0C0C0000000C050
:10FC6400C0C0000000000000001F3F3F2020203FD4
:10FC74001F3F20000000000000C0C0C0000000C002
:10FC8400C0C000000000000000070F1F3830381FFC
:10FC94000F0700000000000000C0C0C0000000000A
:10FCA40000C0C0C00000000000070F3F38380E3805
:10FCB400383F0F070000000000C0C0C00000C0C0F3
:10FCC400C0000000000000000030393F0F0F3F3932
:10FCD40030000000000000000000C0C0C0000000B0
:10FCE400C0C0C000000000000080878F9FD8F87853
:10FCF4003F0F07000000000000C0C0404040C0C0EB
:10FD0400C0000000000000000031383C2E272331E1
:10FD14003800000000000000008080C0787C3C04B3
:10FD24000404040000000000000101031E3E3C2006
:10FD340020202000000000000000000000FEFEFE65
:10FD4400000000000000000000000000007F7F7F32
:10FD5400000000000000000000040404043C7C785F
:10FD6400C08080000000000000202020203C3E1EB7
:10FD74000301010000000000383C3C040C1C383036
:10FD8400203C3C1C000000000000000000000000BB
:10FD94000000000000000608205F000000000000D2
:10FDA4000000002F000000000700070000147F146B
:10FDB4007F1400242A7F2A12002313086462003669
:10FDC4004955225000000503000000001C22410098
:10FDD400000041221C000014083E08140008083EDC
:10FDE4000808000000A060000008080808080000D7
:10FDF40060600000002010080402003E5149453EA6
:10FE04000000427F400000426151494600214145C3
:10FE14004B31001814127F10002745454539003C2A
:10FE24004A494930000171090503003649494936F8
:10FE340000064949291E00003636000000005636E7
:10FE440000000008142241000014141414140000CB
:10FE54004122140800020151090600324959513E59
:10FE6400007C1211127C007F49494936003E414111
:10FE74004122007F4141221C007F49494941007FC2
:10FE840009090901003E4149497A007F0808087FB1
:10FE94000000417F4100002040413F01007F0814E1
:10FEA4002241007F40404040007F020C027F007FDF
:10FEB4000408107F003E4141413E007F09090906C4
:10FEC400003E4151215E007F0919294600464949F7
:10FED40049310001017F0101003F4040403F001FC4
:10FEE4002040201F003F4038403F00631408146343
:10FEF40000070870080700615149454300007F412D
:10FF04004100AA55AA55AA55000041417F000004AA
:10FF1400020102040040404040400000030500008C
:10FF2400002054545478007F4844443800384444F2
:10FF3400442000384444487F00385454541800087E
:10FF44007E0901020018A4A4A47C007F080404789C
:10FF54000000447D4000004080847D00007F102824
:10FF640044000000417F4000007C04180478007CB9
:10FF74000804047800384444443800FC2424241839
:10FF84000018242418FC007C080404080048545475
:10FF9400542000043F444020003C4040207C001C8E
:10FFA4002040201C003C4030403C004428102844A1
:10FFB400001CA0A0A07C004464544C440000107CAD
:10FFC4008200000000FF00000000827C100000009E
:10FFD4000609090610F0707860C6CEFFCEC66078B8
:10FFE40078F010080F0E1E066373FF7363061E0E6F
:0CFFF4000F084755535741544348000084
:020000040001F9
:100000005D50D8A406EF80F008EF80F044EF80F058
:100010002A6A20EE01F01450D9261550DA22DF505A
:100020001A6E18501A5C89EC89F01B6E1C6A2A50F3
:10003000040D450EF324D96E050EF420DA6E1BC5AF
:10004000DEF41CC5DDF419502A02F3C41AF5F4C419
:100050001BF51A1E1B1E1A4A1B2A2A50040D470E96
:10006000F324D96E050EF420DA6E1AC5DEF41BC532
:10007000DDF42A2A040E2A6440EF80F042EF80F07B
:1000800009EF80F0010E5D6E490E0B6E120E0C6EC4
:10009000000E0E6E000E0D6E14C5D9F415C5DAF4FF
:1000A000DF501A6E20EE01F01450D9261550DA22D6
:1000B000DF501B6E1B501A02F3C403F5F4C404F5A1
:1000C000000E066E080E056E7EEC87F003C50FF578
:1000D00004C510F50EEC8AF02B6A20EE01F01450E6
:1000E000D9261550DA22DF501A6E1B6A2B50040DE8
:1000F000450EF324D96E050EF420DA6E1A50DE5C3C
:10010000DE50800A1E6E1B50800A1E58D8B08BEF3E
:1001100080F08DEF80F0B3EF81F014C5D9F415C5F0
:10012000DAF4DF501A6E1B6A2B50040D470EF324CD
:10013000D96E050EF420DA6E1A50DE5CDE50800AAD
:100140001E6E1B50800A1E58D8A0A9EF80F0ABEF9E
:1001500080F0ADEF80F0B3EF81F0070E1924036E4D
:10016000046A000E0422000E066E080E056E7EEC78
:1001700087F00350246E2B50040D470EF324D96EE4
:10018000050EF420DA6EDEC403F5DDC404F5000EBE
:10019000066E080E056E7EEC87F00350256E16C5C0
:1001A00022F517C523F5286A4FEF81F0296A45EF3C
:1001B00081F02B50040D450EF324D96E050EF4206A
:1001C000DA6EDEC41AF5DDC41BF520EE01F0145022
:1001D000D9261550DA22DF501C6E1D6A285025C51D
:1001E0001EF51F6A1E26000E1F221C501E02F3C49D
:1001F00020F5F4C421F51F02F35021261D501E02E4
:10020000F350212629502026000E21221A502024A6
:10021000266E1B502120276E14C5D9F415C5DAF4BB
:10022000DF501A6E20EE01F01450D9261550DA2254
:10023000DF501B6E1B501A02F3C403F5F4C404F51F
:10024000000E066E080E056E7EEC87F00350265CED
:1002500004502758D8B02FEF81F031EF81F044EFF0
:1002600081F022C5F6F423C5F7F4000EF86E0800FD
:10027000F5C41AF5490E2624D96E120E2720DA6E1F
:100280001A50DF12224A232A292A1850295CD8A0A2
:100290004CEF81F04EEF81F0D9EF80F0282A245006
:1002A000285CD8A056EF81F058EF81F0D6EF80F0AF
:1002B0002B50040D470EF324D96E050EF420DA6E90
:1002C000090E89EC89F01A6E1A50DE26000EDD2226
:1002D00014C5D9F415C5DAF4DF501A6E1B6A2B5019
:1002E000040D470EF324D96E050EF420DA6E1A5071
:1002F000DE5CDE50800A1E6E1B50800A1E58D8A09D
:1003000084EF81F086EF81F0B3EF81F020EE01F011
:100310001450D9261550DA22DF501A6E18501A5C84
:1003200089EC89F01B6E1C6A2B50040D450EF324DA
:10033000D96E050EF420DA6E1BC5DEF41CC5DDF4A3
:1003400019501A6E1B6A1A1E1B1E1A4A1B2A2B50A2
:10035000040D470EF324D96E050EF420DA6E1AC58B
:10036000DEF41BC5DDF42B2A040E2B64BAEF81F0FA
:10037000BCEF81F06DEF80F014C50BF515C50CF5E1
:1003800008EC87F0030E1B6E080E1A6E770EE82E2F
:10039000FED71A2EFCD71B2EFAD7000012003A50B7
:1003A0003B10D8B4D6EF81F0D8EF81F07EEF83F028
:1003B00034503510D8A4DFEF81F0E1EF81F0E3EFA6
:1003C00081F07EEF83F03AC503F53BC504F5EFEC11
:1003D00089F00350426E36C543F537C544F520EE2B
:1003E00002F03450D9263550DA223650DE1807E1B3
:1003F0003750DE18D8A4FFEF81F001EF82F021EF33
:1004000082F020EE20F03450D9263550DA22DF5029
:100410003C6E42503C02F3C43DF5F4C43EF520EE80
:1004200001F03450D9263550DA22DF503F6E3D506E
:100430003F5C366E3E50D8A03E28376A375E5BEF91
:1004400082F020EE06F03450D9263550DA223650AC
:10045000DE1807E13750DE18D8A431EF82F033EF11
:1004600082F05BEF82F020EE20F03450D926355038
:10047000DA22DF503C6E42503C02F3C43DF5F4C436
:100480003EF520EE01F03450D9263550DA22DF5007
:100490003F6E3D503F5C036E3E50D8A03E28046A3C
:1004A000045E000E066E020E056E7EEC87F003C53C
:1004B00036F504C537F537BE62EF82F060EF82F0A3
:1004C00066EF82F0000E376E000E366E39BE6DEFAD
:1004D00082F06BEF82F06EEF83F0000E396E000E4B
:1004E000386E6EEF83F03AC5F6F43BC5F7F4000EB4
:1004F000F86E0800F5500A0AD8A481EF82F083EF65
:1005000082F097EF82F020EE21F03450D92635505A
:10051000DA22DF503C6E3C503826000E392243C5AB
:1005200036F544C537F53A4A3B2A6EEF83F03AC5B3
:10053000F6F43BC5F7F4000EF86E0800F5500D0A0E
:10054000D8A4A5EF82F0A7EF82F0A9EF82F08FEF99
:1005500082F020EE20F03450D9263550DA22DF50D8
:100560003C6E3C5036243D6E000E37203E6E20EE31
:1005700001F03450D9263550DA22DF503F6E406A00
:100580003D503F5C4050800A416E3E50800A4158C9
:10059000D8B0CDEF82F0CFEF82F0DFEF82F043C52D
:1005A00036F544C537F520EE21F03450D9263550C4
:1005B000DA22DF503C6E3C503826000E392220EE05
:1005C00021F03450D9263550DA22DF503C6E3C50B1
:1005D00038243D6E000E39203E6E34C5D9F435C541
:1005E000DAF4DF503F6E406A3D503F5C4050800A75
:1005F000416E3E50800A4158D8B001EF83F003EFBE
:1006000083F005EF83F07EEF83F020EE22F034508C
:10061000D9263550DA223AC5F6F43BC5F7F4000E78
:10062000F86EDE500900F55CD8A019EF83F01BEFDF
:1006300083F093EF82F020EE22F03450D92635502B
:10064000DA22DF503C6E3D6A20EE23F03450D9268A
:100650003550DA22DF503E6E3E503C26000E3D22E1
:100660003AC5F6F43BC5F7F4000EF86E0800F550F5
:100670003F6E406A3C503F5C4050800A416E3D50A6
:10068000800A4158D8B047EF83F049EF83F093EFE9
:1006900082F034C51AF535C51BF536C51CF537C5CE
:1006A0001DF538C51EF539C51FF53AC5F6F43BC52D
:1006B000F7F4000EF86E0800F5C420F57FEC83F027
:1006C00020EE20F03450D9263550DA22DF503C6E2F
:1006D0003C503626000E372293EF82F03AC5F6F4EE
:1006E0003BC5F7F4000EF86E0800F5500009D8A4D9
:1006F0007CEF83F07EEF83F073EF82F01200000E48
:10070000306E000E2F6E000E326E000E316E000E37
:100710002E6E000E2D6E20EE21F01A50D9261B50A1
:10072000DA22DF50216E2150036E046A000E066E3D
:10073000080E056E7EEC87F020EE20F01A50D926C8
:100740001B50DA22DF50226E236A03502202F3C4C8
:1007500024F5F4C425F52302F35025260450220283
:10076000F350252620EE22F01A50D9261B50DA220B
:10077000DF50266E265020C527F5286A275E000E1A
:10078000285A24502702F3C429F5F4C42AF5280274
:10079000F3502A2625502702F3502A26040E292436
:1007A0002B6E000E2A202C6E20EE21F01A50D92636
:1007B0001B50DA22DF50216E070E2116D8A4E3EF7A
:1007C00083F0E5EF83F0E7EF84F0000E306E000E6B
:1007D0002F6EC7EF84F0000E326E000E316EADEF5B
:1007E00084F020EE20F01A50D9261B50DA22DF5078
:1007F000216E226A2F502102F3C423F5F4C424F59C
:100800002202F350242630502102F350242620EEF9
:100810001EF01A50D9261B50DA22DEC425F5DDC49D
:1008200026F523502524276E24502620286E2B5091
:1008300027262C502822315027263250282227C51F
:10084000F6F428C5F7F4000EF86E0800F5502D6E8A
:100850002E6A336A33C521F5010E226E000E236E17
:10086000212A36EF84F0D89022362336212E33EF1A
:1008700084F02D5022162E50231622502310D8B467
:1008800044EF84F046EF84F089EF84F020EE1DF011
:100890001A50D9261B50DA2210EE24F01A50E12605
:1008A0001B50E222E750D8B458EF84F05BEF84F09D
:1008B000010E5CEF84F0000EDF6E1AC50BF51BC550
:1008C0000CF531501C240D6E32501D200E6E33C5B8
:1008D00021F5226A21BE22062FC523F530C524F555
:1008E000D89023362436D89023362436D890233611
:1008F000243621502324256E22502420266E1E509B
:1009000025240F6E1F502620106EE8EC84F0A0EF17
:1009100084F020EE1DF01A50D9261B50DA2210EE7A
:1009200024F01A50E1261B50E222E750D8A49BEF96
:1009300084F09EEF84F0010E9FEF84F0000EDF6ED6
:10094000332A3350800A780FD8A0A9EF84F0ABEF98
:1009500084F02AEF84F0314A322A20EE20F01A5037
:10096000D9261B50DA22DF50216E226A2150315CD9
:100970003250800A236E2250800A2358D8A0C3EF39
:1009800084F0C5EF84F0F1EF83F02F4A302A20EE97
:1009900021F01A50D9261B50DA22DF50216E215047
:1009A000036E046A000E066E080E056E7EEC87F07C
:1009B00003502F5C3050800A226E0450800A225867
:1009C000D8A0E5EF84F0E7EF84F0EBEF83F01200BE
:1009D0000EBEEDEF84F0EFEF84F002EF86F020EE34
:1009E00001F00B50D9260C50DA22DF50116E126A3A
:1009F00011500D5C0E50800A136E1250800A13586D
:100A0000D8B005EF85F007EF85F002EF86F010BE55
:100A10000CEF85F00EEF85F002EF86F00BC5D9F4F0
:100A20000CC5DAF4DF50116E126A11500F5C1050D1
:100A3000800A136E1250800A1358D8A022EF85F056
:100A400024EF85F0E3EF85F002EF86F00FC511F596
:100A5000070E1116010E126E112A31EF85F0D89093
:100A60001236112E2FEF85F020EE01F00B50D92613
:100A70000C50DA22DF50136E146A0FC503F510C54F
:100A800004F5000E066E080E056E7EEC87F013501E
:100A90000302F3C415F5F4C416F50402F350162648
:100AA00014500302F3501626490E1524176E120E29
:100AB0001620186E0D501724D96E0E501820DA6EBD
:100AC0001250DF1202EF86F00FC511F5070E111656
:100AD000010E126E112A6FEF85F0D8901236112E8A
:100AE0006DEF85F01250FF0A136E20EE01F00B50EF
:100AF000D9260C50DA22DF50146E156A0FC503F5A3
:100B000010C504F5000E066E080E056E7EEC87F02B
:100B100014500302F3C416F5F4C417F50402F3509D
:100B2000172615500302F3501726490E1624186E87
:100B3000120E1720196E0D501824D96E0E50192060
:100B4000DA6E1350DF1602EF86F00FC511F5070EAF
:100B50001116010E126E112AB0EF85F0D8901236E0
:100B6000112EAEEF85F020EE01F00B50D9260C507F
:100B7000DA22DF50136E146A0FC503F510C504F5B1
:100B8000000E066E080E056E7EEC87F01350030211
:100B9000F3C415F5F4C416F50402F35016261450E8
:100BA0000302F3501626490E1524176E120E162056
:100BB000186E0D501724D96E0E501820DA6E125090
:100BC000DF1A02EF86F020EE1DF00B50D9260C50F4
:100BD000DA22DF50116E126A1250000AD8B4F3EF15
:100BE00085F002EF86F01150000AD8B464EF85F06A
:100BF000010AD8B426EF85F0030AD8B4A5EF85F032
:100C000002EF86F01200050E176E0F0E166EF10E33
:100C1000E82EFED7162EFCD7172EFAD7000014C5E3
:100C200008F515C509F5AE0E0A6EAEEC89F014C5CF
:100C300008F515C509F5D50E0A6EAEEC89F014C598
:100C400008F515C509F5800E0A6EAEEC89F014C5DD
:100C500008F515C509F5A80E0A6EAEEC89F014C5A5
:100C600008F515C509F514C5D9F415C5DAF4DF5032
:100C7000166E16040A6EAEEC89F014C508F515C59B
:100C800009F5D30E0A6EAEEC89F014C508F515C54A
:100C900009F5000E0A6EAEEC89F014C508F515C50D
:100CA00009F5400E0A6EAEEC89F014C508F515C5BD
:100CB00009F58D0E0A6EAEEC89F014C508F515C560
:100CC00009F5140E0A6EAEEC89F014C508F515C5C9
:100CD00009F5200E0A6EAEEC89F014C508F515C5AD
:100CE00009F5000E0A6EAEEC89F014C508F515C5BD
:100CF00009F5A10E0A6EAEEC89F014C508F515C50C
:100D000009F5C80E0A6EAEEC89F014C508F515C5D4
:100D100009F5DA0E0A6EAEEC89F014C508F515C5B2
:100D200009F5120E0A6EAEEC89F014C508F515C56A
:100D300009F5810E0A6EAEEC89F014C508F515C5EB
:100D400009F520EE1CF01450D9261550DA22DF5098
:100D50000A6EAEEC89F014C508F515C509F5D90E73
:100D60000A6EAEEC89F014C508F515C509F5F10E4B
:100D70000A6EAEEC89F014C508F515C509F5DB0E51
:100D80000A6EAEEC89F014C508F515C509F5400EDC
:100D90000A6EAEEC89F014C508F515C509F5A40E68
:100DA0000A6EAEEC89F014C508F515C509F5A60E56
:100DB0000A6EAEEC89F014C508F515C509F52E0EBE
:100DC0000A6EAEEC89F014C508F515C509F5AF0E2D
:100DD0000A6EAEEC89F014C503F515C504F59A0E3C
:100DE000056EFD0E066EDFEC87F0050E176E0F0E1A
:100DF000166EF10EE82EFED7162EFCD7172EFAD758
:100E0000000014C50BF515C50CF508EC87F01200B1
:100E10000BC508F50CC509F5210E0A6EAEEC89F07C
:100E20000BC508F50CC509F5000E0A6EAEEC89F08D
:100E30000BC508F50CC509F520EE01F00B50D926BD
:100E40000C50DA22DF500D6E0D040A6EAEEC89F004
:100E50000BC508F50CC509F5220E0A6EAEEC89F03B
:100E60000BC508F50CC509F5000E0A6EAEEC89F04D
:100E70000BC508F50CC509F5070E0A6EAEEC89F036
:100E8000000E126E000E116E136A490E0D6E120ED8
:100E90000E6E13500D26000E0E2211500D24D96E29
:100EA00012500E20DA6E13500B240F6E000E0C2021
:100EB000106E0C0E0F24E16E000E1020E26EDFC4E7
:100EC000E7F4132A0F0E136468EF87F06AEF87F0D8
:100ED00045EF87F00BC508F50CC509F52AEC8AF03B
:100EE000100E1126000E1222040E125CD8A07BEF09
:100EF00087F07DEF87F044EF87F01200086A06BEA6
:100F000086EF87F084EF87F08CEF87F0056C061E84
:100F1000D8B0062A010E086E04BE93EF87F091EF59
:100F200087F099EF87F0036C041ED8B0042A010EF5
:100F3000081A000E0A6E000E096E05500610D8B48D
:100F4000A4EF87F0A6EF87F0CEEF87F0010E076ED3
:100F5000AEEF87F0D89005360636072A06AEB3EF17
:100F600087F0B5EF87F0AAEF87F0D89009360A36F8
:100F70000550035C06500458D8A0C1EF87F0C3EFBA
:100F800087F0C8EF87F00550035E0650045A0980C9
:100F9000D89006320532072EB5EF87F00850D8B446
:100FA000D4EF87F0D6EF87F0DAEF87F0096C0A1EEE
:100FB000D8B00A2A09C503F50AC504F5120020EEC7
:100FC0001EF00350D9260450DA2205C5DEF406C50A
:100FD000DDF405C5F6F406C5F7F4000EF86E20EE54
:100FE00020F00350D9260450DA220800F5C4DFF4BB
:100FF000010E0524076E000E0620086E07C5F6F4E4
:1010000008C5F7F4000EF86E20EE21F00350D92643
:101010000450DA220800F5C4DFF4020E0524076E3E
:10102000000E0620086E07C5F6F408C5F7F4000E9A
:10103000F86E20EE22F00350D9260450DA22080080
:10104000F5C4DFF4030E0524076E000E0620086EBB
:1010500007C5F6F408C5F7F4000EF86E20EE23F08D
:101060000350D9260450DA220800F5C4DFF420EE3C
:1010700024F00350D9260450DA22DF6A1200066EEB
:10108000010E076E05C58DF206500624FE0B020107
:101090008F6F03C5D9F404C5DAF4DF508C6F948BDD
:1010A00094BB55EF88F057EF88F050EF88F07CEF55
:1010B00088F094A75EEF88F060EF88F07CEF88F00E
:1010C00099AB65EF88F067EF88F07CEF88F005500A
:1010D000075CD8A06EEF88F070EF88F073EF88F0AF
:1010E0008C6B7CEF88F007500324D96E000E04202F
:1010F000DA6EDF508C6F072A98BB81EF88F083EFA0
:1011000088F059EF88F099AB88EF88F08AEF88F083
:1011100083EF88F095BB8FEF88F091EF88F08AEF2E
:1011200088F09AA596EF88F098EF88F091EF88F014
:101130001200CFEC88F0600E036E050E046EB60E42
:10114000056EF10E066EDFEC87F0600E346E050E54
:10115000356E000E376E000E366E000E396E000EC4
:10116000386EF60E3A6EFF0E3B6ECFEC81F0600EDD
:10117000146E050E156ED80E166EFF0E176E0F0E3E
:10118000186E100E196E00EC80F0600E0B6E050EDE
:101190000C6E08EC87F09BEF88F081EF00F064ECB8
:1011A00089F0600E0001AD6F060EB16F400EB36F97
:1011B000000E046E100E036E44EC8AF0CA90040117
:1011C0002091CB922893A280B290D68E3C0E05013E
:1011D000686F800E616F400E606F010E7D6FCF0EE5
:1011E0007C6F000E656F000E646F000E636FFE0E65
:1011F000626F000E676F6669600E146E050E156EE5
:1012000003EC86F0120005500610D8B40AEF89F0FE
:101210000CEF89F030EF89F0010E076E14EF89F0C2
:10122000D89005360636072A06AE19EF89F01BEF6F
:1012300089F010EF89F00550035C06500458D8A0DF
:1012400024EF89F026EF89F02AEF89F00550035E3C
:101250000650045AD89006320532072E1BEF89F04B
:0A12600003C503F504C504F51200F0
:10126C00B2900201A151016E026AD8905934D96E24
:10127C005A34DA6E850ED926050EDA2201C5DEF453
:10128C0002C5DDF4D8905934D96E5A34DA6E850E15
:10129C00D926050EDA22AA0EDE18DE10D8A459EFD4
:1012AC0089F05BEF89F061EF89F0000E5A6E000E49
:1012BC00596E63EF89F0594A5A2A1100C896C8989A
:1012CC0004011097109912871289370E0201146FBE
:1012DC00380E156F8751CF0B2009876F8751FC0B88
:1012EC000109876F8651CF0B2009866F8651FC0B45
:1012FC000109866F948F030E9C6F9451F80B0409AF
:10130C00946F969912000E6E5B4A5C2A6D0E086EF5
:10131C004E0E096E08505B02F3C40AF5F4C40BF5CB
:10132C005C02F3500B2609505B02F3500B26390E6E
:10133C000A240C6E300E0B200D6E0CC503F50DC57A
:10134C0004F50EC505F5066A03EC89F0035012008E
:10135C0020EE09F00850D9260950DA22DF6A20EE77
:10136C000AF00850D9260950DA220AC5DFF4090E12
:10137C000824036E000E0920046E020E056E20EE8A
:10138C0008F00850D9260950DA22DF503FEC88F0DB
:10139C00120001EE85F114EEC4F0EE6AE550E15056
:1013AC00FCE1E250FAE101EE60F1250EEE6AE8068E
:1013BC00FDE101EE45F1190EEE6AE806FDE10401CE
:1013CC00080E5D6F000E5E6F000E5F6F000199EFEF
:1013DC0088F003C505F504C506F5F7EF89F0034A57
:1013EC00042A03C5F6F404C5F7F4000EF86E0800E1
:1013FC00F5500009D8A405EF8AF007EF8AF0F5EF55
:10140C0089F00550035C036E06500458046E1200FC
:10141C000BC511F50CC512F51CEF8AF011C5D9F4EA
:10142C0012C5DAF40DC5DFF4114A122A0F06D8A042
:10143C0010060F2806E11028D8A427EF8AF029EF10
:10144C008AF014EF8AF0120020EE0BF00850D92627
:10145C000950DA22400EDF6E0B0E0824036E000ECC
:10146C000920046E110E056E20EE08F00850D926E6
:10147C000950DA22DF503FEC88F0120004500201D0
:10148C00AF6F03C5AEF2300EAB6F800EAC6FAD6BB1
:0A149C00200E296F290E726F120056
:020000040030CA
:08000000FCFF3DDF9FFFFFFF45
:01000900FFF7
:00000001FF
